:1000000037C06BC050C04FC04EC04DC04CC04BC07D
:100010004AC049C048C047C046C045C044C043C0AC
:1000200042C041C040C009021900010100C00509D9
:1000300004000001000000000705810308000A1207
:10004000011001FF000008C116DF050001010200D8
:1000500001140365007800700061006E00640065A3
:10006000007200320006034B004400040309040040
:1000700011241FBECFE5D4E0DEBFCDBF10E0A0E667
:10008000B0E0E4E5F7E002C005900D92A236B107BA
:10009000D9F710E0A2E6B0E001C01D92AB39B1077C
:1000A000E1F7A6D255C3ACCFA82FB92F80E090E0DE
:1000B00041E050EA609530E009C02D918227979584
:1000C000879510F084279527305EC8F36F5FA8F3FB
:1000D0000895EADF8D939D930895CF93CFB7CF9383
:1000E000DF93C395839BE9F7839B0BC0839B09C078
:1000F000839B07C0839B05C0839B03C0839B01C078
:100100008BC06F93C0917E00DD27CB57DF4F2F93BD
:1001100065E5839B03C02F916F91E6CF0F931F93EB
:100120004F9320E040E15F9300B30C7003FB27F98D
:100130003F9350E03BE039C01C7040642F77012FA3
:100140005F5F1EC0406810B31C702F7752501FC0F5
:10015000406400B32F770C70D1F15F5F00C023C003
:10016000406210B32F771C7091F15F5F00C025C013
:100170000C701027515012F45D5F0000115027954C
:100180002C3F10B3C8F61C700127015027952C3F57
:10019000C8F64227499300B30C7010274F731150D3
:1001A00027952C3FA8F64695469510B31C7079F01C
:1001B0000127015027952C3F98F66B5A60F3315078
:1001C00000B3B0F600C010E41ABF002719C03B50BE
:1001D0003195C31BD04010E41ABF0881033C09F1DC
:1001E0000B34F9F020917B001981110F1213EDCF20
:1001F0004A81441F093651F10D3211F0013E29F7B1
:10020000009383003F915F914F911F910F912F9128
:100210006F91CAB7C6FD65CFDF91CF91CFBFCF91A8
:10022000189520918300222369F3109181001123F6
:1002300091F5343092F13093810020937C0010913D
:100240007E003BE0311B30937E0027C0009181008F
:1002500001300CF50AE54F7049F43091600034FD2F
:100260001DC000936000C4E6D0E01CC030916F0058
:1002700034FD14C000936F00C0E7D0E013C0052721
:1002800010E000C0000002BB1AC0052710E0221FCA
:100290001DC010E021C04AE502C032ED432FC4E189
:1002A000D0E032E011B31C60939A02B311BB5CE062
:1002B00020E865E320FF052702BB279517951C3F23
:1002C000F0F66695B8F7B1F720FF052702BB279532
:1002D00017951C3FD0F62795179517FF05270000A7
:1002E0001C3F02BBB0F629913A9519F7037F109194
:1002F0008200110FC651D04002BB11F010937B0059
:1003000010E41ABF086011B3137F402F437F54E0FD
:100310005A95F1F702BB11BB42BB74CF1F93CF9329
:10032000DF9380918100835087FD0EC190917E0004
:1003300020917C002D3209F005C1883009F002C1FE
:10034000ECE0F0E0E91BF109EB57FF4F83EC809301
:1003500064008AE580936000109263003081932FDF
:1003600090768181992309F452C0853671F08F3FD0
:1003700009F440C0843609F048C08DE790E09093BE
:10038000800080937F0021E0D4C0828180FF02C082
:10039000A89A01C0A898828181FF02C0A99A01C0D1
:1003A000A998828182FF02C0AA9A01C0AA9882817C
:1003B00083FF02C0AB9A01C0AB98828184FF02C068
:1003C000AC9A01C0AC98828185FF02C0AD9A01C091
:1003D000AD98828186FF02C0909A01C09098828178
:1003E00087FF02C0919A01C09198959A8AE0809304
:1003F00062000BC0F89428E088E190E00FB6F89412
:10040000A89581BD0FBE21BDFFCF20E092C0928193
:10041000248110926D00811117C0832F8F7111F408
:1004200081E00AC0823051F4213841F490916F008C
:1004300081E09E3109F080E080936D0010926E00A3
:100440008DE690E022E071C0813011F0833081F4BC
:10045000911168C0213809F065C0813011F48AE536
:1004600001C08EE180936F008BE4809370005AC0CE
:10047000853019F49093820055C08630D1F5838180
:10048000813041F48FE390E09093800080937F006F
:1004900022E12BC0823041F486E290E0909380000C
:1004A00080937F0029E121C08330F1F4911108C0CD
:1004B0008BE690E09093800080937F0024E015C04D
:1004C000913041F485E690E09093800080937F0026
:1004D00026E00BC0923041F481E590E090938000DB
:1004E00080937F0024E101C020E080E480936300DA
:1004F00020C0883081F0893019F49093840007C0BF
:100500008A3061F08B3071F48BE4809370008AE55F
:1005100080936F0007C084E890E002C08DE690E011
:1005200021E003C08DE690E020E09093800080936E
:100530007F008781811104C08681821708F4282FEB
:1005400020936100109281008091600084FF3FC081
:10055000809161008F3FD9F1182F893008F018E0A1
:10056000811B809361008091640098E889278093C3
:100570006400112301F1E0917F00F09180008091EF
:10058000630086FF0AC0A5E6B0E0812F8A0F949130
:100590009D9331968A13FBCF0AC0EF01A5E6B0E028
:1005A000812F8A0F99919D93FE018A13FBCFF093BF
:1005B0008000E0937F00612F85E690E08ADD1C5F7C
:1005C0001C3019F08FEF809361001093600084E17C
:1005D00090B39C7049F48150D9F710928200109228
:1005E0007B008AE580936F00DF91CF911F91089582
:1005F0002FE088E190E00FB6F894A89581BD0FBE7A
:1006000021BD8D9A8AE020E292B3922792BB3FEF00
:1006100040E792E0315040409040E1F700C00000D8
:10062000815091F785B7826085BF8BB780648BBF9F
:100630008BE4809370008AE580936F008B9A2FEF94
:1006400033EC49E0215030404040E1F700C0000069
:100650008B987894A09AA898A19AA998A29AAA98F7
:10066000A39AAB98A49AAC98A59AAD98889A9098BA
:10067000899A91988E9896988F989798B898C098DC
:10068000B998C198BA98C298BB98C398BC98C498B6
:10069000BD98C598D1E0C0E01AE006E08AE5F82EE2
:1006A00098E8E92E42C0C43109F03FC0C0B3C6FB90
:1006B000CC27C0F98799C260B099C460B199C8606D
:1006C000B299C061B399C062B499C064B599C06869
:1006D00080917D00C81302C0DD2319F1959A109313
:1006E000620001C01BDE80916F0084FFFBCF809110
:1006F0006F008E31B1F080916F0084FF06C0809151
:1007000070008E258093700002C0F0926F001092EE
:100710007100C093720062E081E790E0DADC009340
:100720006F00C0937D00D0E0C0E0F8DD8FE99FE06E
:100730000197F1F700C00000A895CF5F809162009B
:10074000811102C09598AFCF815080936200ABCFEA
:04075000F894FFCF4B
:020754005AFF4A
:00000001FF
